{
  "address": "0x6D2908C6C4f7A2c7378f9823AD854bbdb63c4ab0",
  "abi": [
    {
      "inputs": [
        {
          "internalType": "address",
          "name": "_VRFCoordinator",
          "type": "address"
        },
        {
          "internalType": "address",
          "name": "_LinkToken",
          "type": "address"
        },
        {
          "internalType": "bytes32",
          "name": "_keyHash",
          "type": "bytes32"
        },
        {
          "internalType": "uint256",
          "name": "_fee",
          "type": "uint256"
        }
      ],
      "stateMutability": "nonpayable",
      "type": "constructor"
    },
    {
      "anonymous": false,
      "inputs": [
        {
          "indexed": true,
          "internalType": "address",
          "name": "owner",
          "type": "address"
        },
        {
          "indexed": true,
          "internalType": "address",
          "name": "approved",
          "type": "address"
        },
        {
          "indexed": true,
          "internalType": "uint256",
          "name": "tokenId",
          "type": "uint256"
        }
      ],
      "name": "Approval",
      "type": "event"
    },
    {
      "anonymous": false,
      "inputs": [
        {
          "indexed": true,
          "internalType": "address",
          "name": "owner",
          "type": "address"
        },
        {
          "indexed": true,
          "internalType": "address",
          "name": "operator",
          "type": "address"
        },
        {
          "indexed": false,
          "internalType": "bool",
          "name": "approved",
          "type": "bool"
        }
      ],
      "name": "ApprovalForAll",
      "type": "event"
    },
    {
      "anonymous": false,
      "inputs": [
        {
          "indexed": true,
          "internalType": "uint256",
          "name": "tokenId",
          "type": "uint256"
        },
        {
          "indexed": false,
          "internalType": "string",
          "name": "tokenURI",
          "type": "string"
        }
      ],
      "name": "CreatedRandomSVG",
      "type": "event"
    },
    {
      "anonymous": false,
      "inputs": [
        {
          "indexed": true,
          "internalType": "uint256",
          "name": "tokenId",
          "type": "uint256"
        },
        {
          "indexed": false,
          "internalType": "uint256",
          "name": "randomNumber",
          "type": "uint256"
        }
      ],
      "name": "CreatedUnfinishedRandomSVG",
      "type": "event"
    },
    {
      "anonymous": false,
      "inputs": [
        {
          "indexed": true,
          "internalType": "address",
          "name": "from",
          "type": "address"
        },
        {
          "indexed": true,
          "internalType": "address",
          "name": "to",
          "type": "address"
        },
        {
          "indexed": true,
          "internalType": "uint256",
          "name": "tokenId",
          "type": "uint256"
        }
      ],
      "name": "Transfer",
      "type": "event"
    },
    {
      "anonymous": false,
      "inputs": [
        {
          "indexed": true,
          "internalType": "bytes32",
          "name": "requestId",
          "type": "bytes32"
        },
        {
          "indexed": true,
          "internalType": "uint256",
          "name": "tokenId",
          "type": "uint256"
        }
      ],
      "name": "requestedRandomSVG",
      "type": "event"
    },
    {
      "inputs": [
        {
          "internalType": "address",
          "name": "to",
          "type": "address"
        },
        {
          "internalType": "uint256",
          "name": "tokenId",
          "type": "uint256"
        }
      ],
      "name": "approve",
      "outputs": [],
      "stateMutability": "nonpayable",
      "type": "function"
    },
    {
      "inputs": [
        {
          "internalType": "address",
          "name": "owner",
          "type": "address"
        }
      ],
      "name": "balanceOf",
      "outputs": [
        {
          "internalType": "uint256",
          "name": "",
          "type": "uint256"
        }
      ],
      "stateMutability": "view",
      "type": "function"
    },
    {
      "inputs": [
        {
          "internalType": "uint256",
          "name": "",
          "type": "uint256"
        }
      ],
      "name": "colors",
      "outputs": [
        {
          "internalType": "string",
          "name": "",
          "type": "string"
        }
      ],
      "stateMutability": "view",
      "type": "function"
    },
    {
      "inputs": [],
      "name": "create",
      "outputs": [
        {
          "internalType": "bytes32",
          "name": "requestId",
          "type": "bytes32"
        }
      ],
      "stateMutability": "nonpayable",
      "type": "function"
    },
    {
      "inputs": [],
      "name": "fee",
      "outputs": [
        {
          "internalType": "uint256",
          "name": "",
          "type": "uint256"
        }
      ],
      "stateMutability": "view",
      "type": "function"
    },
    {
      "inputs": [
        {
          "internalType": "uint256",
          "name": "tokenId",
          "type": "uint256"
        }
      ],
      "name": "finishMint",
      "outputs": [],
      "stateMutability": "nonpayable",
      "type": "function"
    },
    {
      "inputs": [
        {
          "internalType": "string",
          "name": "imageURI",
          "type": "string"
        }
      ],
      "name": "formatTokenURI",
      "outputs": [
        {
          "internalType": "string",
          "name": "",
          "type": "string"
        }
      ],
      "stateMutability": "pure",
      "type": "function"
    },
    {
      "inputs": [
        {
          "internalType": "uint256",
          "name": "_randomNumber",
          "type": "uint256"
        }
      ],
      "name": "generatePath",
      "outputs": [
        {
          "internalType": "string",
          "name": "pathSVG",
          "type": "string"
        }
      ],
      "stateMutability": "view",
      "type": "function"
    },
    {
      "inputs": [
        {
          "internalType": "uint256",
          "name": "_randomNumber",
          "type": "uint256"
        }
      ],
      "name": "generatePathCommand",
      "outputs": [
        {
          "internalType": "string",
          "name": "pathCommand",
          "type": "string"
        }
      ],
      "stateMutability": "view",
      "type": "function"
    },
    {
      "inputs": [
        {
          "internalType": "uint256",
          "name": "_randomNumber",
          "type": "uint256"
        }
      ],
      "name": "generateSVG",
      "outputs": [
        {
          "internalType": "string",
          "name": "finalSVG",
          "type": "string"
        }
      ],
      "stateMutability": "view",
      "type": "function"
    },
    {
      "inputs": [
        {
          "internalType": "uint256",
          "name": "tokenId",
          "type": "uint256"
        }
      ],
      "name": "getApproved",
      "outputs": [
        {
          "internalType": "address",
          "name": "",
          "type": "address"
        }
      ],
      "stateMutability": "view",
      "type": "function"
    },
    {
      "inputs": [
        {
          "internalType": "address",
          "name": "owner",
          "type": "address"
        },
        {
          "internalType": "address",
          "name": "operator",
          "type": "address"
        }
      ],
      "name": "isApprovedForAll",
      "outputs": [
        {
          "internalType": "bool",
          "name": "",
          "type": "bool"
        }
      ],
      "stateMutability": "view",
      "type": "function"
    },
    {
      "inputs": [],
      "name": "keyHash",
      "outputs": [
        {
          "internalType": "bytes32",
          "name": "",
          "type": "bytes32"
        }
      ],
      "stateMutability": "view",
      "type": "function"
    },
    {
      "inputs": [],
      "name": "maxNumberOfPathCommands",
      "outputs": [
        {
          "internalType": "uint256",
          "name": "",
          "type": "uint256"
        }
      ],
      "stateMutability": "view",
      "type": "function"
    },
    {
      "inputs": [],
      "name": "maxNumberOfPaths",
      "outputs": [
        {
          "internalType": "uint256",
          "name": "",
          "type": "uint256"
        }
      ],
      "stateMutability": "view",
      "type": "function"
    },
    {
      "inputs": [],
      "name": "name",
      "outputs": [
        {
          "internalType": "string",
          "name": "",
          "type": "string"
        }
      ],
      "stateMutability": "view",
      "type": "function"
    },
    {
      "inputs": [
        {
          "internalType": "uint256",
          "name": "tokenId",
          "type": "uint256"
        }
      ],
      "name": "ownerOf",
      "outputs": [
        {
          "internalType": "address",
          "name": "",
          "type": "address"
        }
      ],
      "stateMutability": "view",
      "type": "function"
    },
    {
      "inputs": [
        {
          "internalType": "uint256",
          "name": "",
          "type": "uint256"
        }
      ],
      "name": "pathCommands",
      "outputs": [
        {
          "internalType": "string",
          "name": "",
          "type": "string"
        }
      ],
      "stateMutability": "view",
      "type": "function"
    },
    {
      "inputs": [
        {
          "internalType": "bytes32",
          "name": "requestId",
          "type": "bytes32"
        },
        {
          "internalType": "uint256",
          "name": "randomness",
          "type": "uint256"
        }
      ],
      "name": "rawFulfillRandomness",
      "outputs": [],
      "stateMutability": "nonpayable",
      "type": "function"
    },
    {
      "inputs": [
        {
          "internalType": "bytes32",
          "name": "",
          "type": "bytes32"
        }
      ],
      "name": "requestIdToSender",
      "outputs": [
        {
          "internalType": "address",
          "name": "",
          "type": "address"
        }
      ],
      "stateMutability": "view",
      "type": "function"
    },
    {
      "inputs": [
        {
          "internalType": "bytes32",
          "name": "",
          "type": "bytes32"
        }
      ],
      "name": "requestIdToTokenId",
      "outputs": [
        {
          "internalType": "uint256",
          "name": "",
          "type": "uint256"
        }
      ],
      "stateMutability": "view",
      "type": "function"
    },
    {
      "inputs": [
        {
          "internalType": "address",
          "name": "from",
          "type": "address"
        },
        {
          "internalType": "address",
          "name": "to",
          "type": "address"
        },
        {
          "internalType": "uint256",
          "name": "tokenId",
          "type": "uint256"
        }
      ],
      "name": "safeTransferFrom",
      "outputs": [],
      "stateMutability": "nonpayable",
      "type": "function"
    },
    {
      "inputs": [
        {
          "internalType": "address",
          "name": "from",
          "type": "address"
        },
        {
          "internalType": "address",
          "name": "to",
          "type": "address"
        },
        {
          "internalType": "uint256",
          "name": "tokenId",
          "type": "uint256"
        },
        {
          "internalType": "bytes",
          "name": "_data",
          "type": "bytes"
        }
      ],
      "name": "safeTransferFrom",
      "outputs": [],
      "stateMutability": "nonpayable",
      "type": "function"
    },
    {
      "inputs": [
        {
          "internalType": "address",
          "name": "operator",
          "type": "address"
        },
        {
          "internalType": "bool",
          "name": "approved",
          "type": "bool"
        }
      ],
      "name": "setApprovalForAll",
      "outputs": [],
      "stateMutability": "nonpayable",
      "type": "function"
    },
    {
      "inputs": [],
      "name": "size",
      "outputs": [
        {
          "internalType": "uint256",
          "name": "",
          "type": "uint256"
        }
      ],
      "stateMutability": "view",
      "type": "function"
    },
    {
      "inputs": [
        {
          "internalType": "bytes4",
          "name": "interfaceId",
          "type": "bytes4"
        }
      ],
      "name": "supportsInterface",
      "outputs": [
        {
          "internalType": "bool",
          "name": "",
          "type": "bool"
        }
      ],
      "stateMutability": "view",
      "type": "function"
    },
    {
      "inputs": [
        {
          "internalType": "string",
          "name": "svg",
          "type": "string"
        }
      ],
      "name": "svgToImageURI",
      "outputs": [
        {
          "internalType": "string",
          "name": "",
          "type": "string"
        }
      ],
      "stateMutability": "pure",
      "type": "function"
    },
    {
      "inputs": [],
      "name": "symbol",
      "outputs": [
        {
          "internalType": "string",
          "name": "",
          "type": "string"
        }
      ],
      "stateMutability": "view",
      "type": "function"
    },
    {
      "inputs": [],
      "name": "tokenCounter",
      "outputs": [
        {
          "internalType": "uint256",
          "name": "",
          "type": "uint256"
        }
      ],
      "stateMutability": "view",
      "type": "function"
    },
    {
      "inputs": [
        {
          "internalType": "uint256",
          "name": "",
          "type": "uint256"
        }
      ],
      "name": "tokenIdToRandomNumber",
      "outputs": [
        {
          "internalType": "uint256",
          "name": "",
          "type": "uint256"
        }
      ],
      "stateMutability": "view",
      "type": "function"
    },
    {
      "inputs": [
        {
          "internalType": "uint256",
          "name": "tokenId",
          "type": "uint256"
        }
      ],
      "name": "tokenURI",
      "outputs": [
        {
          "internalType": "string",
          "name": "",
          "type": "string"
        }
      ],
      "stateMutability": "view",
      "type": "function"
    },
    {
      "inputs": [
        {
          "internalType": "address",
          "name": "from",
          "type": "address"
        },
        {
          "internalType": "address",
          "name": "to",
          "type": "address"
        },
        {
          "internalType": "uint256",
          "name": "tokenId",
          "type": "uint256"
        }
      ],
      "name": "transferFrom",
      "outputs": [],
      "stateMutability": "nonpayable",
      "type": "function"
    }
  ],
  "transactionHash": "0x0a7ce4b1df52a2407d8afb0b49370daa816d13ab15f059920343e9f6ae1b04e3",
  "args": [
    "0xb3dCcb4Cf7a26f6cf6B120Cf5A73875B7BBc655B",
    "0x01BE23585060835E02B77ef475b0Cc51aA1e0709",
    "0x2ed0feb3e7fd2022120aa84fab1945545a9f2ffc9076fd6156fa96eaff4c1311",
    "100000000000000000"
  ],
  "solcInputHash": "e5d2b9506d03f5e261f8d167d538c72c",
  "bytecode": "0x60c06040523480156200001157600080fd5b5060405162004ea438038062004ea48339818101604052810190620000379190620005c3565b83836040518060400160405280600981526020017f52616e646f6d53564700000000000000000000000000000000000000000000008152506040518060400160405280600581526020017f72734e46540000000000000000000000000000000000000000000000000000008152508160009080519060200190620000bd92919062000392565b508060019080519060200190620000d692919062000392565b5050508173ffffffffffffffffffffffffffffffffffffffff1660a08173ffffffffffffffffffffffffffffffffffffffff1660601b815250508073ffffffffffffffffffffffffffffffffffffffff1660808173ffffffffffffffffffffffffffffffffffffffff1660601b81525050505080600981905550816008819055506000600a81905550600a600b819055506005600c819055506101f4600d8190555060405180604001604052806040518060400160405280600181526020017f4d0000000000000000000000000000000000000000000000000000000000000081525081526020016040518060400160405280600181526020017f4c00000000000000000000000000000000000000000000000000000000000000815250815250600e9060026200020992919062000423565b506040518060c001604052806040518060400160405280600381526020017f726564000000000000000000000000000000000000000000000000000000000081525081526020016040518060400160405280600481526020017f626c75650000000000000000000000000000000000000000000000000000000081525081526020016040518060400160405280600581526020017f677265656e00000000000000000000000000000000000000000000000000000081525081526020016040518060400160405280600681526020017f79656c6c6f77000000000000000000000000000000000000000000000000000081525081526020016040518060400160405280600581526020017f626c61636b00000000000000000000000000000000000000000000000000000081525081526020016040518060400160405280600581526020017f7768697465000000000000000000000000000000000000000000000000000000815250815250600f906006620003879291906200048a565b50505050506200072a565b828054620003a09062000677565b90600052602060002090601f016020900481019282620003c4576000855562000410565b82601f10620003df57805160ff191683800117855562000410565b8280016001018555821562000410579182015b828111156200040f578251825591602001919060010190620003f2565b5b5090506200041f9190620004f1565b5090565b82805482825590600052602060002090810192821562000477579160200282015b82811115620004765782518290805190602001906200046592919062000392565b509160200191906001019062000444565b5b50905062000486919062000510565b5090565b828054828255906000526020600020908101928215620004de579160200282015b82811115620004dd578251829080519060200190620004cc92919062000392565b5091602001919060010190620004ab565b5b509050620004ed919062000510565b5090565b5b808211156200050c576000816000905550600101620004f2565b5090565b5b808211156200053457600081816200052a919062000538565b5060010162000511565b5090565b508054620005469062000677565b6000825580601f106200055a57506200057b565b601f0160209004906000526020600020908101906200057a9190620004f1565b5b50565b6000815190506200058f81620006dc565b92915050565b600081519050620005a681620006f6565b92915050565b600081519050620005bd8162000710565b92915050565b60008060008060808587031215620005da57600080fd5b6000620005ea878288016200057e565b9450506020620005fd878288016200057e565b9350506040620006108782880162000595565b92505060606200062387828801620005ac565b91505092959194509250565b60006200063c826200064d565b9050919050565b6000819050919050565b600073ffffffffffffffffffffffffffffffffffffffff82169050919050565b6000819050919050565b600060028204905060018216806200069057607f821691505b60208210811415620006a757620006a6620006ad565b5b50919050565b7f4e487b7100000000000000000000000000000000000000000000000000000000600052602260045260246000fd5b620006e7816200062f565b8114620006f357600080fd5b50565b620007018162000643565b81146200070d57600080fd5b50565b6200071b816200066d565b81146200072757600080fd5b50565b60805160601c60a05160601c6147476200075d600039600081816111a401526125610152600061252501526147476000f3fe608060405234801561001057600080fd5b50600436106101f05760003560e01c806371aee1931161010f578063bd11f69d116100a2578063d082e38111610071578063d082e3811461063d578063ddca3f431461065b578063e985e9c514610679578063efc81a8c146106a9576101f0565b8063bd11f69d1461058f578063c21bf36f146105bf578063c68b49d1146105dd578063c87b56dd1461060d576101f0565b806395d89b41116100de57806395d89b41146105095780639c1cd79514610527578063a22cb46514610557578063b88d4fde14610573576101f0565b806371aee1931461046f57806394985ddd1461049f578063949d225d146104bb578063955968d4146104d9576101f0565b806333af598911610187578063624194c711610156578063624194c7146103c35780636352211e146103df5780636dcee4ca1461040f57806370a082311461043f576101f0565b806333af59891461033b57806342842e0e1461036b57806348e896ab1461038757806361728f39146103a5576101f0565b8063219c0eee116101c3578063219c0eee1461028f57806322881f88146102bf57806323b872dd146102ef57806330d871c61461030b576101f0565b806301ffc9a7146101f557806306fdde0314610225578063081812fc14610243578063095ea7b314610273575b600080fd5b61020f600480360381019061020a91906130d0565b6106c7565b60405161021c9190613e5a565b60405180910390f35b61022d6107a9565b60405161023a9190613efe565b60405180910390f35b61025d60048036038101906102589190613163565b61083b565b60405161026a9190613db5565b60405180910390f35b61028d60048036038101906102889190613006565b6108c0565b005b6102a960048036038101906102a4919061306b565b6109d8565b6040516102b69190613db5565b60405180910390f35b6102d960048036038101906102d4919061306b565b610a0b565b6040516102e691906141a0565b60405180910390f35b61030960048036038101906103049190612f00565b610a23565b005b61032560048036038101906103209190613122565b610a83565b6040516103329190613efe565b60405180910390f35b61035560048036038101906103509190613163565b610b1c565b6040516103629190613efe565b60405180910390f35b61038560048036038101906103809190612f00565b610d0e565b005b61038f610d2e565b60405161039c91906141a0565b60405180910390f35b6103ad610d34565b6040516103ba9190613e75565b60405180910390f35b6103dd60048036038101906103d89190613163565b610d3a565b005b6103f960048036038101906103f49190613163565b610ea9565b6040516104069190613db5565b60405180910390f35b61042960048036038101906104249190613163565b610f5b565b6040516104369190613efe565b60405180910390f35b61045960048036038101906104549190612e9b565b61105d565b60405161046691906141a0565b60405180910390f35b61048960048036038101906104849190613122565b611115565b6040516104969190613efe565b60405180910390f35b6104b960048036038101906104b49190613094565b6111a2565b005b6104c361123e565b6040516104d091906141a0565b60405180910390f35b6104f360048036038101906104ee9190613163565b611244565b6040516105009190613efe565b60405180910390f35b6105116112f0565b60405161051e9190613efe565b60405180910390f35b610541600480360381019061053c9190613163565b611382565b60405161054e91906141a0565b60405180910390f35b610571600480360381019061056c9190612fca565b61139a565b005b61058d60048036038101906105889190612f4f565b61151b565b005b6105a960048036038101906105a49190613163565b61157d565b6040516105b69190613efe565b60405180910390f35b6105c7611629565b6040516105d491906141a0565b60405180910390f35b6105f760048036038101906105f29190613163565b61162f565b6040516106049190613efe565b60405180910390f35b61062760048036038101906106229190613163565b6117e2565b6040516106349190613efe565b60405180910390f35b610645611934565b60405161065291906141a0565b60405180910390f35b61066361193a565b60405161067091906141a0565b60405180910390f35b610693600480360381019061068e9190612ec4565b611940565b6040516106a09190613e5a565b60405180910390f35b6106b16119d4565b6040516106be9190613e75565b60405180910390f35b60007f80ac58cd000000000000000000000000000000000000000000000000000000007bffffffffffffffffffffffffffffffffffffffffffffffffffffffff1916827bffffffffffffffffffffffffffffffffffffffffffffffffffffffff1916148061079257507f5b5e139f000000000000000000000000000000000000000000000000000000007bffffffffffffffffffffffffffffffffffffffffffffffffffffffff1916827bffffffffffffffffffffffffffffffffffffffffffffffffffffffff1916145b806107a257506107a182611a9e565b5b9050919050565b6060600080546107b8906144d1565b80601f01602080910402602001604051908101604052809291908181526020018280546107e4906144d1565b80156108315780601f1061080657610100808354040283529160200191610831565b820191906000526020600020905b81548152906001019060200180831161081457829003601f168201915b5050505050905090565b600061084682611b08565b610885576040517f08c379a000000000000000000000000000000000000000000000000000000000815260040161087c906140a0565b60405180910390fd5b6004600083815260200190815260200160002060009054906101000a900473ffffffffffffffffffffffffffffffffffffffff169050919050565b60006108cb82610ea9565b90508073ffffffffffffffffffffffffffffffffffffffff168373ffffffffffffffffffffffffffffffffffffffff16141561093c576040517f08c379a000000000000000000000000000000000000000000000000000000000815260040161093390614120565b60405180910390fd5b8073ffffffffffffffffffffffffffffffffffffffff1661095b611b74565b73ffffffffffffffffffffffffffffffffffffffff16148061098a575061098981610984611b74565b611940565b5b6109c9576040517f08c379a00000000000000000000000000000000000000000000000000000000081526004016109c090613fe0565b60405180910390fd5b6109d38383611b7c565b505050565b60106020528060005260406000206000915054906101000a900473ffffffffffffffffffffffffffffffffffffffff1681565b60116020528060005260406000206000915090505481565b610a34610a2e611b74565b82611c35565b610a73576040517f08c379a0000000000000000000000000000000000000000000000000000000008152600401610a6a90614160565b60405180910390fd5b610a7e838383611d13565b505050565b606060006040518060400160405280601a81526020017f646174613a696d6167652f7376672b786d6c3b6261736536342c00000000000081525090506000610ae984604051602001610ad59190613c65565b604051602081830303815290604052611f6f565b905060008282604051602001610b00929190613c7c565b6040516020818303038152906040529050809350505050919050565b606060006001600c5484610b309190614560565b610b3a91906142b8565b90506040518060400160405280600981526020017f3c7061746820643d270000000000000000000000000000000000000000000000815250915060005b81811015610c025760008482600d54610b9091906142b8565b604051602001610ba19291906141bb565b6040516020818303038152906040528051906020012060001c90506000610bc78261162f565b90508481604051602001610bdc929190613c7c565b604051602081830303815290604052945050508080610bfa90614503565b915050610b77565b506000600f808054905085610c179190614560565b81548110610c4e577f4e487b7100000000000000000000000000000000000000000000000000000000600052603260045260246000fd5b906000526020600020018054610c63906144d1565b80601f0160208091040260200160405190810160405280929190818152602001828054610c8f906144d1565b8015610cdc5780601f10610cb157610100808354040283529160200191610cdc565b820191906000526020600020905b815481529060010190602001808311610cbf57829003601f168201915b505050505090508281604051602001610cf6929190613ca0565b60405160208183030381529060405292505050919050565b610d298383836040518060200160405280600081525061151b565b505050565b600c5481565b60085481565b6000610d45826117e2565b511115610d87576040517f08c379a0000000000000000000000000000000000000000000000000000000008152600401610d7e90614140565b60405180910390fd5b80600a5411610dcb576040517f08c379a0000000000000000000000000000000000000000000000000000000008152600401610dc290613fc0565b60405180910390fd5b6000601260008381526020019081526020016000205411610e21576040517f08c379a0000000000000000000000000000000000000000000000000000000008152600401610e1890614180565b60405180910390fd5b6000601260008381526020019081526020016000205490506000610e4482610f5b565b90506000610e5182610a83565b90506000610e5e82611115565b9050610e6a858261210e565b847f15a6487b7915a7116ce2a61d43b17e9b47484b1931f3c79f2f3d139b307b389384604051610e9a9190613efe565b60405180910390a25050505050565b6000806002600084815260200190815260200160002060009054906101000a900473ffffffffffffffffffffffffffffffffffffffff169050600073ffffffffffffffffffffffffffffffffffffffff168173ffffffffffffffffffffffffffffffffffffffff161415610f52576040517f08c379a0000000000000000000000000000000000000000000000000000000008152600401610f4990614020565b60405180910390fd5b80915050919050565b606060006001600b5484610f6f9190614560565b610f7991906142b8565b9050610f86600d54612182565b610f91600d54612182565b604051602001610fa2929190613d70565b604051602081830303815290604052915060005b818110156110345760008482604051602001610fd39291906141bb565b6040516020818303038152906040528051906020012060001c90506000610ff982610b1c565b9050848160405160200161100e929190613c7c565b60405160208183030381529060405294505050808061102c90614503565b915050610fb6565b50816040516020016110469190613d21565b604051602081830303815290604052915050919050565b60008073ffffffffffffffffffffffffffffffffffffffff168273ffffffffffffffffffffffffffffffffffffffff1614156110ce576040517f08c379a00000000000000000000000000000000000000000000000000000000081526004016110c590614000565b60405180910390fd5b600360008373ffffffffffffffffffffffffffffffffffffffff1673ffffffffffffffffffffffffffffffffffffffff168152602001908152602001600020549050919050565b606060006040518060400160405280601d81526020017f646174613a6170706c69636174696f6e2f6a736f6e3b6261736536342c00000081525090508061117a846040516020016111669190613d43565b604051602081830303815290604052611f6f565b60405160200161118b929190613c7c565b604051602081830303815290604052915050919050565b7f000000000000000000000000000000000000000000000000000000000000000073ffffffffffffffffffffffffffffffffffffffff163373ffffffffffffffffffffffffffffffffffffffff1614611230576040517f08c379a000000000000000000000000000000000000000000000000000000000815260040161122790614100565b60405180910390fd5b61123a8282612357565b5050565b600d5481565b600e818154811061125457600080fd5b90600052602060002001600091509050805461126f906144d1565b80601f016020809104026020016040519081016040528092919081815260200182805461129b906144d1565b80156112e85780601f106112bd576101008083540402835291602001916112e8565b820191906000526020600020905b8154815290600101906020018083116112cb57829003601f168201915b505050505081565b6060600180546112ff906144d1565b80601f016020809104026020016040519081016040528092919081815260200182805461132b906144d1565b80156113785780601f1061134d57610100808354040283529160200191611378565b820191906000526020600020905b81548152906001019060200180831161135b57829003601f168201915b5050505050905090565b60126020528060005260406000206000915090505481565b6113a2611b74565b73ffffffffffffffffffffffffffffffffffffffff168273ffffffffffffffffffffffffffffffffffffffff161415611410576040517f08c379a000000000000000000000000000000000000000000000000000000000815260040161140790613f80565b60405180910390fd5b806005600061141d611b74565b73ffffffffffffffffffffffffffffffffffffffff1673ffffffffffffffffffffffffffffffffffffffff16815260200190815260200160002060008473ffffffffffffffffffffffffffffffffffffffff1673ffffffffffffffffffffffffffffffffffffffff16815260200190815260200160002060006101000a81548160ff0219169083151502179055508173ffffffffffffffffffffffffffffffffffffffff166114ca611b74565b73ffffffffffffffffffffffffffffffffffffffff167f17307eab39ab6107e8899845ad3d59bd9653f200f220920489ca2b5937696c318360405161150f9190613e5a565b60405180910390a35050565b61152c611526611b74565b83611c35565b61156b576040517f08c379a000000000000000000000000000000000000000000000000000000000815260040161156290614160565b60405180910390fd5b61157784848484612407565b50505050565b600f818154811061158d57600080fd5b9060005260206000200160009150905080546115a8906144d1565b80601f01602080910402602001604051908101604052809291908181526020018280546115d4906144d1565b80156116215780601f106115f657610100808354040283529160200191611621565b820191906000526020600020905b81548152906001019060200180831161160457829003601f168201915b505050505081565b600b5481565b6060600e8080549050836116439190614560565b8154811061167a577f4e487b7100000000000000000000000000000000000000000000000000000000600052603260045260246000fd5b90600052602060002001805461168f906144d1565b80601f01602080910402602001604051908101604052809291908181526020018280546116bb906144d1565b80156117085780601f106116dd57610100808354040283529160200191611708565b820191906000526020600020905b8154815290600101906020018083116116eb57829003601f168201915b505050505090506000600d54836002600d546117249190614376565b6040516020016117359291906141bb565b6040516020818303038152906040528051906020012060001c6117589190614560565b90506000600d54846003600d5461176f9190614376565b6040516020016117809291906141bb565b6040516020818303038152906040528051906020012060001c6117a39190614560565b9050826117af83612182565b6117b883612182565b6040516020016117ca93929190613cda565b60405160208183030381529060405292505050919050565b60606117ed82611b08565b61182c576040517f08c379a000000000000000000000000000000000000000000000000000000000815260040161182390614080565b60405180910390fd5b600060066000848152602001908152602001600020805461184c906144d1565b80601f0160208091040260200160405190810160405280929190818152602001828054611878906144d1565b80156118c55780601f1061189a576101008083540402835291602001916118c5565b820191906000526020600020905b8154815290600101906020018083116118a857829003601f168201915b5050505050905060006118d6612463565b90506000815114156118ec57819250505061192f565b600082511115611921578082604051602001611909929190613c7c565b6040516020818303038152906040529250505061192f565b61192a8461247a565b925050505b919050565b600a5481565b60095481565b6000600560008473ffffffffffffffffffffffffffffffffffffffff1673ffffffffffffffffffffffffffffffffffffffff16815260200190815260200160002060008373ffffffffffffffffffffffffffffffffffffffff1673ffffffffffffffffffffffffffffffffffffffff16815260200190815260200160002060009054906101000a900460ff16905092915050565b60006119e4600854600954612521565b9050336010600083815260200190815260200160002060006101000a81548173ffffffffffffffffffffffffffffffffffffffff021916908373ffffffffffffffffffffffffffffffffffffffff1602179055506000600a5490508060116000848152602001908152602001600020819055506001600a54611a6691906142b8565b600a8190555080827fb97343f1f2afc4959f818046ccae28fd7b05fcd2b7a7dc651cbb52a096cae03560405160405180910390a35090565b60007f01ffc9a7000000000000000000000000000000000000000000000000000000007bffffffffffffffffffffffffffffffffffffffffffffffffffffffff1916827bffffffffffffffffffffffffffffffffffffffffffffffffffffffff1916149050919050565b60008073ffffffffffffffffffffffffffffffffffffffff166002600084815260200190815260200160002060009054906101000a900473ffffffffffffffffffffffffffffffffffffffff1673ffffffffffffffffffffffffffffffffffffffff1614159050919050565b600033905090565b816004600083815260200190815260200160002060006101000a81548173ffffffffffffffffffffffffffffffffffffffff021916908373ffffffffffffffffffffffffffffffffffffffff160217905550808273ffffffffffffffffffffffffffffffffffffffff16611bef83610ea9565b73ffffffffffffffffffffffffffffffffffffffff167f8c5be1e5ebec7d5bd14f71427d1e84f3dd0314c0f7b2291e5b200ac8c7c3b92560405160405180910390a45050565b6000611c4082611b08565b611c7f576040517f08c379a0000000000000000000000000000000000000000000000000000000008152600401611c7690613fa0565b60405180910390fd5b6000611c8a83610ea9565b90508073ffffffffffffffffffffffffffffffffffffffff168473ffffffffffffffffffffffffffffffffffffffff161480611cf957508373ffffffffffffffffffffffffffffffffffffffff16611ce18461083b565b73ffffffffffffffffffffffffffffffffffffffff16145b80611d0a5750611d098185611940565b5b91505092915050565b8273ffffffffffffffffffffffffffffffffffffffff16611d3382610ea9565b73ffffffffffffffffffffffffffffffffffffffff1614611d89576040517f08c379a0000000000000000000000000000000000000000000000000000000008152600401611d80906140c0565b60405180910390fd5b600073ffffffffffffffffffffffffffffffffffffffff168273ffffffffffffffffffffffffffffffffffffffff161415611df9576040517f08c379a0000000000000000000000000000000000000000000000000000000008152600401611df090613f60565b60405180910390fd5b611e04838383612683565b611e0f600082611b7c565b6001600360008573ffffffffffffffffffffffffffffffffffffffff1673ffffffffffffffffffffffffffffffffffffffff1681526020019081526020016000206000828254611e5f91906143d0565b925050819055506001600360008473ffffffffffffffffffffffffffffffffffffffff1673ffffffffffffffffffffffffffffffffffffffff1681526020019081526020016000206000828254611eb691906142b8565b92505081905550816002600083815260200190815260200160002060006101000a81548173ffffffffffffffffffffffffffffffffffffffff021916908373ffffffffffffffffffffffffffffffffffffffff160217905550808273ffffffffffffffffffffffffffffffffffffffff168473ffffffffffffffffffffffffffffffffffffffff167fddf252ad1be2c89b69c2b068fc378daa952ba7f163c4a11628f55a4df523b3ef60405160405180910390a4505050565b6060600082511415611f9257604051806020016040528060008152509050612109565b60006040518060600160405280604081526020016146d26040913990506000600360028551611fc191906142b8565b611fcb9190614345565b6004611fd79190614376565b90506000602082611fe891906142b8565b67ffffffffffffffff811115612027577f4e487b7100000000000000000000000000000000000000000000000000000000600052604160045260246000fd5b6040519080825280601f01601f1916602001820160405280156120595781602001600182028036833780820191505090505b509050818152600183018586518101602084015b818310156120c8576003830192508251603f8160121c168501518253600182019150603f81600c1c168501518253600182019150603f8160061c168501518253600182019150603f811685015182536001820191505061206d565b6003895106600181146120e257600281146120f2576120fd565b613d3d60f01b60028303526120fd565b603d60f81b60018303525b50505050508093505050505b919050565b61211782611b08565b612156576040517f08c379a000000000000000000000000000000000000000000000000000000000815260040161214d90614040565b60405180910390fd5b8060066000848152602001908152602001600020908051906020019061217d929190612c95565b505050565b606060008214156121ca576040518060400160405280600181526020017f30000000000000000000000000000000000000000000000000000000000000008152509050612352565b600082905060005b600082146121fc5780806121e590614503565b915050600a826121f59190614345565b91506121d2565b60008167ffffffffffffffff81111561223e577f4e487b7100000000000000000000000000000000000000000000000000000000600052604160045260246000fd5b6040519080825280601f01601f1916602001820160405280156122705781602001600182028036833780820191505090505b50905060008290505b6000861461234a5760018161228e91906143d0565b90506000600a80886122a09190614345565b6122aa9190614376565b876122b591906143d0565b60306122c1919061430e565b905060008160f81b905080848481518110612305577f4e487b7100000000000000000000000000000000000000000000000000000000600052603260045260246000fd5b60200101907effffffffffffffffffffffffffffffffffffffffffffffffffffffffffffff1916908160001a905350600a886123419190614345565b97505050612279565b819450505050505b919050565b60006010600084815260200190815260200160002060009054906101000a900473ffffffffffffffffffffffffffffffffffffffff1690506000601160008581526020019081526020016000205490506123b18282612688565b826012600083815260200190815260200160002081905550807faad5362ce528ed941024b95d4c18dfd49b8503e1f586a5c353631d98c2af41b7846040516123f991906141a0565b60405180910390a250505050565b612412848484611d13565b61241e848484846126a6565b61245d576040517f08c379a000000000000000000000000000000000000000000000000000000000815260040161245490613f20565b60405180910390fd5b50505050565b606060405180602001604052806000815250905090565b606061248582611b08565b6124c4576040517f08c379a00000000000000000000000000000000000000000000000000000000081526004016124bb906140e0565b60405180910390fd5b60006124ce612463565b905060008151116124ee5760405180602001604052806000815250612519565b806124f88461283d565b604051602001612509929190613c7c565b6040516020818303038152906040525b915050919050565b60007f000000000000000000000000000000000000000000000000000000000000000073ffffffffffffffffffffffffffffffffffffffff16634000aea07f000000000000000000000000000000000000000000000000000000000000000084866000604051602001612595929190613e90565b6040516020818303038152906040526040518463ffffffff1660e01b81526004016125c293929190613e1c565b602060405180830381600087803b1580156125dc57600080fd5b505af11580156125f0573d6000803e3d6000fd5b505050506040513d601f19601f820116820180604052508101906126149190613042565b5060006126378460003060076000898152602001908152602001600020546129ea565b90506001600760008681526020019081526020016000205461265991906142b8565b600760008681526020019081526020016000208190555061267a8482612a26565b91505092915050565b505050565b6126a2828260405180602001604052806000815250612a59565b5050565b60006126c78473ffffffffffffffffffffffffffffffffffffffff16612ab4565b15612830578373ffffffffffffffffffffffffffffffffffffffff1663150b7a026126f0611b74565b8786866040518563ffffffff1660e01b81526004016127129493929190613dd0565b602060405180830381600087803b15801561272c57600080fd5b505af192505050801561275d57506040513d601f19601f8201168201806040525081019061275a91906130f9565b60015b6127e0573d806000811461278d576040519150601f19603f3d011682016040523d82523d6000602084013e612792565b606091505b506000815114156127d8576040517f08c379a00000000000000000000000000000000000000000000000000000000081526004016127cf90613f20565b60405180910390fd5b805181602001fd5b63150b7a0260e01b7bffffffffffffffffffffffffffffffffffffffffffffffffffffffff1916817bffffffffffffffffffffffffffffffffffffffffffffffffffffffff191614915050612835565b600190505b949350505050565b60606000821415612885576040518060400160405280600181526020017f300000000000000000000000000000000000000000000000000000000000000081525090506129e5565b600082905060005b600082146128b75780806128a090614503565b915050600a826128b09190614345565b915061288d565b60008167ffffffffffffffff8111156128f9577f4e487b7100000000000000000000000000000000000000000000000000000000600052604160045260246000fd5b6040519080825280601f01601f19166020018201604052801561292b5781602001600182028036833780820191505090505b5090505b600085146129de5760018261294491906143d0565b9150600a856129539190614560565b603061295f91906142b8565b60f81b81838151811061299b577f4e487b7100000000000000000000000000000000000000000000000000000000600052603260045260246000fd5b60200101907effffffffffffffffffffffffffffffffffffffffffffffffffffffffffffff1916908160001a905350600a856129d79190614345565b945061292f565b8093505050505b919050565b600084848484604051602001612a039493929190613eb9565b6040516020818303038152906040528051906020012060001c9050949350505050565b60008282604051602001612a3b929190613c39565b60405160208183030381529060405280519060200120905092915050565b612a638383612ac7565b612a7060008484846126a6565b612aaf576040517f08c379a0000000000000000000000000000000000000000000000000000000008152600401612aa690613f20565b60405180910390fd5b505050565b600080823b905060008111915050919050565b600073ffffffffffffffffffffffffffffffffffffffff168273ffffffffffffffffffffffffffffffffffffffff161415612b37576040517f08c379a0000000000000000000000000000000000000000000000000000000008152600401612b2e90614060565b60405180910390fd5b612b4081611b08565b15612b80576040517f08c379a0000000000000000000000000000000000000000000000000000000008152600401612b7790613f40565b60405180910390fd5b612b8c60008383612683565b6001600360008473ffffffffffffffffffffffffffffffffffffffff1673ffffffffffffffffffffffffffffffffffffffff1681526020019081526020016000206000828254612bdc91906142b8565b92505081905550816002600083815260200190815260200160002060006101000a81548173ffffffffffffffffffffffffffffffffffffffff021916908373ffffffffffffffffffffffffffffffffffffffff160217905550808273ffffffffffffffffffffffffffffffffffffffff16600073ffffffffffffffffffffffffffffffffffffffff167fddf252ad1be2c89b69c2b068fc378daa952ba7f163c4a11628f55a4df523b3ef60405160405180910390a45050565b828054612ca1906144d1565b90600052602060002090601f016020900481019282612cc35760008555612d0a565b82601f10612cdc57805160ff1916838001178555612d0a565b82800160010185558215612d0a579182015b82811115612d09578251825591602001919060010190612cee565b5b509050612d179190612d1b565b5090565b5b80821115612d34576000816000905550600101612d1c565b5090565b6000612d4b612d4684614215565b6141e4565b905082815260208101848484011115612d6357600080fd5b612d6e84828561448f565b509392505050565b6000612d89612d8484614245565b6141e4565b905082815260208101848484011115612da157600080fd5b612dac84828561448f565b509392505050565b600081359050612dc38161465e565b92915050565b600081359050612dd881614675565b92915050565b600081519050612ded81614675565b92915050565b600081359050612e028161468c565b92915050565b600081359050612e17816146a3565b92915050565b600081519050612e2c816146a3565b92915050565b600082601f830112612e4357600080fd5b8135612e53848260208601612d38565b91505092915050565b600082601f830112612e6d57600080fd5b8135612e7d848260208601612d76565b91505092915050565b600081359050612e95816146ba565b92915050565b600060208284031215612ead57600080fd5b6000612ebb84828501612db4565b91505092915050565b60008060408385031215612ed757600080fd5b6000612ee585828601612db4565b9250506020612ef685828601612db4565b9150509250929050565b600080600060608486031215612f1557600080fd5b6000612f2386828701612db4565b9350506020612f3486828701612db4565b9250506040612f4586828701612e86565b9150509250925092565b60008060008060808587031215612f6557600080fd5b6000612f7387828801612db4565b9450506020612f8487828801612db4565b9350506040612f9587828801612e86565b925050606085013567ffffffffffffffff811115612fb257600080fd5b612fbe87828801612e32565b91505092959194509250565b60008060408385031215612fdd57600080fd5b6000612feb85828601612db4565b9250506020612ffc85828601612dc9565b9150509250929050565b6000806040838503121561301957600080fd5b600061302785828601612db4565b925050602061303885828601612e86565b9150509250929050565b60006020828403121561305457600080fd5b600061306284828501612dde565b91505092915050565b60006020828403121561307d57600080fd5b600061308b84828501612df3565b91505092915050565b600080604083850312156130a757600080fd5b60006130b585828601612df3565b92505060206130c685828601612e86565b9150509250929050565b6000602082840312156130e257600080fd5b60006130f084828501612e08565b91505092915050565b60006020828403121561310b57600080fd5b600061311984828501612e1d565b91505092915050565b60006020828403121561313457600080fd5b600082013567ffffffffffffffff81111561314e57600080fd5b61315a84828501612e5c565b91505092915050565b60006020828403121561317557600080fd5b600061318384828501612e86565b91505092915050565b61319581614404565b82525050565b6131a481614416565b82525050565b6131b381614422565b82525050565b6131ca6131c582614422565b61454c565b82525050565b60006131db82614275565b6131e5818561428b565b93506131f581856020860161449e565b6131fe8161464d565b840191505092915050565b600061321482614280565b61321e818561429c565b935061322e81856020860161449e565b6132378161464d565b840191505092915050565b600061324d82614280565b61325781856142ad565b935061326781856020860161449e565b80840191505092915050565b600061328060328361429c565b91507f4552433732313a207472616e7366657220746f206e6f6e20455243373231526560008301527f63656976657220696d706c656d656e74657200000000000000000000000000006020830152604082019050919050565b60006132e6601c8361429c565b91507f4552433732313a20746f6b656e20616c7265616479206d696e746564000000006000830152602082019050919050565b600061332660248361429c565b91507f4552433732313a207472616e7366657220746f20746865207a65726f2061646460008301527f72657373000000000000000000000000000000000000000000000000000000006020830152604082019050919050565b600061338c60198361429c565b91507f4552433732313a20617070726f766520746f2063616c6c6572000000000000006000830152602082019050919050565b60006133cc602c8361429c565b91507f4552433732313a206f70657261746f7220717565727920666f72206e6f6e657860008301527f697374656e7420746f6b656e00000000000000000000000000000000000000006020830152604082019050919050565b6000613432601d836142ad565b91507f272066696c6c3d277472616e73706172656e7427207374726f6b653d270000006000830152601d82019050919050565b600061347260208361429c565b91507f746f6b656e496420686173206e6f74206265656e206d696e74656420796574216000830152602082019050919050565b60006134b26057836142ad565b91507f7b226e616d65223a2022535647204e4654222c20226465736372697074696f6e60008301527f223a2022416e204e4654206261736564206f6e2053564721222c20226174747260208301527f696275746573223a2022222c2022696d616765223a20220000000000000000006040830152605782019050919050565b600061353e6001836142ad565b91507f20000000000000000000000000000000000000000000000000000000000000006000830152600182019050919050565b600061357e6003836142ad565b91507f272f3e00000000000000000000000000000000000000000000000000000000006000830152600382019050919050565b60006135be60388361429c565b91507f4552433732313a20617070726f76652063616c6c6572206973206e6f74206f7760008301527f6e6572206e6f7220617070726f76656420666f7220616c6c00000000000000006020830152604082019050919050565b6000613624602a8361429c565b91507f4552433732313a2062616c616e636520717565727920666f7220746865207a6560008301527f726f2061646472657373000000000000000000000000000000000000000000006020830152604082019050919050565b600061368a60298361429c565b91507f4552433732313a206f776e657220717565727920666f72206e6f6e657869737460008301527f656e7420746f6b656e00000000000000000000000000000000000000000000006020830152604082019050919050565b60006136f0602e8361429c565b91507f45524337323155524953746f726167653a2055524920736574206f66206e6f6e60008301527f6578697374656e7420746f6b656e0000000000000000000000000000000000006020830152604082019050919050565b60006137566002836142ad565b91507f227d0000000000000000000000000000000000000000000000000000000000006000830152600282019050919050565b600061379660208361429c565b91507f4552433732313a206d696e7420746f20746865207a65726f20616464726573736000830152602082019050919050565b60006137d660318361429c565b91507f45524337323155524953746f726167653a2055524920717565727920666f722060008301527f6e6f6e6578697374656e7420746f6b656e0000000000000000000000000000006020830152604082019050919050565b600061383c602c8361429c565b91507f4552433732313a20617070726f76656420717565727920666f72206e6f6e657860008301527f697374656e7420746f6b656e00000000000000000000000000000000000000006020830152604082019050919050565b60006138a260298361429c565b91507f4552433732313a207472616e73666572206f6620746f6b656e2074686174206960008301527f73206e6f74206f776e00000000000000000000000000000000000000000000006020830152604082019050919050565b60006139086030836142ad565b91507f3c73766720786d6c6e733d27687474703a2f2f7777772e77332e6f72672f323060008301527f30302f73766727206865696768743d27000000000000000000000000000000006020830152603082019050919050565b600061396e602f8361429c565b91507f4552433732314d657461646174613a2055524920717565727920666f72206e6f60008301527f6e6578697374656e7420746f6b656e00000000000000000000000000000000006020830152604082019050919050565b60006139d4601f8361429c565b91507f4f6e6c7920565246436f6f7264696e61746f722063616e2066756c66696c6c006000830152602082019050919050565b6000613a1460218361429c565b91507f4552433732313a20617070726f76616c20746f2063757272656e74206f776e6560008301527f72000000000000000000000000000000000000000000000000000000000000006020830152604082019050919050565b6000613a7a601c8361429c565b91507f746f6b656e55524920697320616c726561647920616c6c2073657421000000006000830152602082019050919050565b6000613aba60318361429c565b91507f4552433732313a207472616e736665722063616c6c6572206973206e6f74206f60008301527f776e6572206e6f7220617070726f7665640000000000000000000000000000006020830152604082019050919050565b6000613b206002836142ad565b91507f273e0000000000000000000000000000000000000000000000000000000000006000830152600282019050919050565b6000613b606006836142ad565b91507f3c2f7376673e00000000000000000000000000000000000000000000000000006000830152600682019050919050565b6000613ba0601e8361429c565b91507f4e65656420746f207761697420666f7220436861696e6c696e6b2056524600006000830152602082019050919050565b6000613be06009836142ad565b91507f272077696474683d2700000000000000000000000000000000000000000000006000830152600982019050919050565b613c1c81614478565b82525050565b613c33613c2e82614478565b614556565b82525050565b6000613c4582856131b9565b602082019150613c558284613c22565b6020820191508190509392505050565b6000613c718284613242565b915081905092915050565b6000613c888285613242565b9150613c948284613242565b91508190509392505050565b6000613cac8285613242565b9150613cb782613425565b9150613cc38284613242565b9150613cce82613571565b91508190509392505050565b6000613ce68286613242565b9150613cf182613531565b9150613cfd8285613242565b9150613d0882613531565b9150613d148284613242565b9150819050949350505050565b6000613d2d8284613242565b9150613d3882613b53565b915081905092915050565b6000613d4e826134a5565b9150613d5a8284613242565b9150613d6582613749565b915081905092915050565b6000613d7b826138fb565b9150613d878285613242565b9150613d9282613bd3565b9150613d9e8284613242565b9150613da982613b13565b91508190509392505050565b6000602082019050613dca600083018461318c565b92915050565b6000608082019050613de5600083018761318c565b613df2602083018661318c565b613dff6040830185613c13565b8181036060830152613e1181846131d0565b905095945050505050565b6000606082019050613e31600083018661318c565b613e3e6020830185613c13565b8181036040830152613e5081846131d0565b9050949350505050565b6000602082019050613e6f600083018461319b565b92915050565b6000602082019050613e8a60008301846131aa565b92915050565b6000604082019050613ea560008301856131aa565b613eb26020830184613c13565b9392505050565b6000608082019050613ece60008301876131aa565b613edb6020830186613c13565b613ee8604083018561318c565b613ef56060830184613c13565b95945050505050565b60006020820190508181036000830152613f188184613209565b905092915050565b60006020820190508181036000830152613f3981613273565b9050919050565b60006020820190508181036000830152613f59816132d9565b9050919050565b60006020820190508181036000830152613f7981613319565b9050919050565b60006020820190508181036000830152613f998161337f565b9050919050565b60006020820190508181036000830152613fb9816133bf565b9050919050565b60006020820190508181036000830152613fd981613465565b9050919050565b60006020820190508181036000830152613ff9816135b1565b9050919050565b6000602082019050818103600083015261401981613617565b9050919050565b600060208201905081810360008301526140398161367d565b9050919050565b60006020820190508181036000830152614059816136e3565b9050919050565b6000602082019050818103600083015261407981613789565b9050919050565b60006020820190508181036000830152614099816137c9565b9050919050565b600060208201905081810360008301526140b98161382f565b9050919050565b600060208201905081810360008301526140d981613895565b9050919050565b600060208201905081810360008301526140f981613961565b9050919050565b60006020820190508181036000830152614119816139c7565b9050919050565b6000602082019050818103600083015261413981613a07565b9050919050565b6000602082019050818103600083015261415981613a6d565b9050919050565b6000602082019050818103600083015261417981613aad565b9050919050565b6000602082019050818103600083015261419981613b93565b9050919050565b60006020820190506141b56000830184613c13565b92915050565b60006040820190506141d06000830185613c13565b6141dd6020830184613c13565b9392505050565b6000604051905081810181811067ffffffffffffffff8211171561420b5761420a61461e565b5b8060405250919050565b600067ffffffffffffffff8211156142305761422f61461e565b5b601f19601f8301169050602081019050919050565b600067ffffffffffffffff8211156142605761425f61461e565b5b601f19601f8301169050602081019050919050565b600081519050919050565b600081519050919050565b600082825260208201905092915050565b600082825260208201905092915050565b600081905092915050565b60006142c382614478565b91506142ce83614478565b9250827fffffffffffffffffffffffffffffffffffffffffffffffffffffffffffffffff0382111561430357614302614591565b5b828201905092915050565b600061431982614482565b915061432483614482565b92508260ff0382111561433a57614339614591565b5b828201905092915050565b600061435082614478565b915061435b83614478565b92508261436b5761436a6145c0565b5b828204905092915050565b600061438182614478565b915061438c83614478565b9250817fffffffffffffffffffffffffffffffffffffffffffffffffffffffffffffffff04831182151516156143c5576143c4614591565b5b828202905092915050565b60006143db82614478565b91506143e683614478565b9250828210156143f9576143f8614591565b5b828203905092915050565b600061440f82614458565b9050919050565b60008115159050919050565b6000819050919050565b60007fffffffff0000000000000000000000000000000000000000000000000000000082169050919050565b600073ffffffffffffffffffffffffffffffffffffffff82169050919050565b6000819050919050565b600060ff82169050919050565b82818337600083830152505050565b60005b838110156144bc5780820151818401526020810190506144a1565b838111156144cb576000848401525b50505050565b600060028204905060018216806144e957607f821691505b602082108114156144fd576144fc6145ef565b5b50919050565b600061450e82614478565b91507fffffffffffffffffffffffffffffffffffffffffffffffffffffffffffffffff82141561454157614540614591565b5b600182019050919050565b6000819050919050565b6000819050919050565b600061456b82614478565b915061457683614478565b925082614586576145856145c0565b5b828206905092915050565b7f4e487b7100000000000000000000000000000000000000000000000000000000600052601160045260246000fd5b7f4e487b7100000000000000000000000000000000000000000000000000000000600052601260045260246000fd5b7f4e487b7100000000000000000000000000000000000000000000000000000000600052602260045260246000fd5b7f4e487b7100000000000000000000000000000000000000000000000000000000600052604160045260246000fd5b6000601f19601f8301169050919050565b61466781614404565b811461467257600080fd5b50565b61467e81614416565b811461468957600080fd5b50565b61469581614422565b81146146a057600080fd5b50565b6146ac8161442c565b81146146b757600080fd5b50565b6146c381614478565b81146146ce57600080fd5b5056fe4142434445464748494a4b4c4d4e4f505152535455565758595a6162636465666768696a6b6c6d6e6f707172737475767778797a303132333435363738392b2fa2646970667358221220b82ad79a043294ca1fe1a40f925e50a4c7362281e76651f6f9b0267e351b761864736f6c63430008000033",
  "devdoc": {
    "kind": "dev",
    "methods": {
      "approve(address,uint256)": {
        "details": "See {IERC721-approve}."
      },
      "balanceOf(address)": {
        "details": "See {IERC721-balanceOf}."
      },
      "getApproved(uint256)": {
        "details": "See {IERC721-getApproved}."
      },
      "isApprovedForAll(address,address)": {
        "details": "See {IERC721-isApprovedForAll}."
      },
      "name()": {
        "details": "See {IERC721Metadata-name}."
      },
      "ownerOf(uint256)": {
        "details": "See {IERC721-ownerOf}."
      },
      "safeTransferFrom(address,address,uint256)": {
        "details": "See {IERC721-safeTransferFrom}."
      },
      "safeTransferFrom(address,address,uint256,bytes)": {
        "details": "See {IERC721-safeTransferFrom}."
      },
      "setApprovalForAll(address,bool)": {
        "details": "See {IERC721-setApprovalForAll}."
      },
      "supportsInterface(bytes4)": {
        "details": "See {IERC165-supportsInterface}."
      },
      "symbol()": {
        "details": "See {IERC721Metadata-symbol}."
      },
      "tokenURI(uint256)": {
        "details": "See {IERC721Metadata-tokenURI}."
      },
      "transferFrom(address,address,uint256)": {
        "details": "See {IERC721-transferFrom}."
      }
    },
    "version": 1
  },
  "userdoc": {
    "kind": "user",
    "methods": {},
    "version": 1
  },
  "storageLayout": {
    "storage": [
      {
        "astId": 291,
        "contract": "contracts/RandomSVG.sol:RandomSVG",
        "label": "_name",
        "offset": 0,
        "slot": "0",
        "type": "t_string_storage"
      },
      {
        "astId": 293,
        "contract": "contracts/RandomSVG.sol:RandomSVG",
        "label": "_symbol",
        "offset": 0,
        "slot": "1",
        "type": "t_string_storage"
      },
      {
        "astId": 297,
        "contract": "contracts/RandomSVG.sol:RandomSVG",
        "label": "_owners",
        "offset": 0,
        "slot": "2",
        "type": "t_mapping(t_uint256,t_address)"
      },
      {
        "astId": 301,
        "contract": "contracts/RandomSVG.sol:RandomSVG",
        "label": "_balances",
        "offset": 0,
        "slot": "3",
        "type": "t_mapping(t_address,t_uint256)"
      },
      {
        "astId": 305,
        "contract": "contracts/RandomSVG.sol:RandomSVG",
        "label": "_tokenApprovals",
        "offset": 0,
        "slot": "4",
        "type": "t_mapping(t_uint256,t_address)"
      },
      {
        "astId": 311,
        "contract": "contracts/RandomSVG.sol:RandomSVG",
        "label": "_operatorApprovals",
        "offset": 0,
        "slot": "5",
        "type": "t_mapping(t_address,t_mapping(t_address,t_bool))"
      },
      {
        "astId": 1228,
        "contract": "contracts/RandomSVG.sol:RandomSVG",
        "label": "_tokenURIs",
        "offset": 0,
        "slot": "6",
        "type": "t_mapping(t_uint256,t_string_storage)"
      },
      {
        "astId": 79,
        "contract": "contracts/RandomSVG.sol:RandomSVG",
        "label": "nonces",
        "offset": 0,
        "slot": "7",
        "type": "t_mapping(t_bytes32,t_uint256)"
      },
      {
        "astId": 2054,
        "contract": "contracts/RandomSVG.sol:RandomSVG",
        "label": "keyHash",
        "offset": 0,
        "slot": "8",
        "type": "t_bytes32"
      },
      {
        "astId": 2056,
        "contract": "contracts/RandomSVG.sol:RandomSVG",
        "label": "fee",
        "offset": 0,
        "slot": "9",
        "type": "t_uint256"
      },
      {
        "astId": 2058,
        "contract": "contracts/RandomSVG.sol:RandomSVG",
        "label": "tokenCounter",
        "offset": 0,
        "slot": "10",
        "type": "t_uint256"
      },
      {
        "astId": 2060,
        "contract": "contracts/RandomSVG.sol:RandomSVG",
        "label": "maxNumberOfPaths",
        "offset": 0,
        "slot": "11",
        "type": "t_uint256"
      },
      {
        "astId": 2062,
        "contract": "contracts/RandomSVG.sol:RandomSVG",
        "label": "maxNumberOfPathCommands",
        "offset": 0,
        "slot": "12",
        "type": "t_uint256"
      },
      {
        "astId": 2064,
        "contract": "contracts/RandomSVG.sol:RandomSVG",
        "label": "size",
        "offset": 0,
        "slot": "13",
        "type": "t_uint256"
      },
      {
        "astId": 2067,
        "contract": "contracts/RandomSVG.sol:RandomSVG",
        "label": "pathCommands",
        "offset": 0,
        "slot": "14",
        "type": "t_array(t_string_storage)dyn_storage"
      },
      {
        "astId": 2070,
        "contract": "contracts/RandomSVG.sol:RandomSVG",
        "label": "colors",
        "offset": 0,
        "slot": "15",
        "type": "t_array(t_string_storage)dyn_storage"
      },
      {
        "astId": 2074,
        "contract": "contracts/RandomSVG.sol:RandomSVG",
        "label": "requestIdToSender",
        "offset": 0,
        "slot": "16",
        "type": "t_mapping(t_bytes32,t_address)"
      },
      {
        "astId": 2078,
        "contract": "contracts/RandomSVG.sol:RandomSVG",
        "label": "requestIdToTokenId",
        "offset": 0,
        "slot": "17",
        "type": "t_mapping(t_bytes32,t_uint256)"
      },
      {
        "astId": 2082,
        "contract": "contracts/RandomSVG.sol:RandomSVG",
        "label": "tokenIdToRandomNumber",
        "offset": 0,
        "slot": "18",
        "type": "t_mapping(t_uint256,t_uint256)"
      }
    ],
    "types": {
      "t_address": {
        "encoding": "inplace",
        "label": "address",
        "numberOfBytes": "20"
      },
      "t_array(t_string_storage)dyn_storage": {
        "base": "t_string_storage",
        "encoding": "dynamic_array",
        "label": "string[]",
        "numberOfBytes": "32"
      },
      "t_bool": {
        "encoding": "inplace",
        "label": "bool",
        "numberOfBytes": "1"
      },
      "t_bytes32": {
        "encoding": "inplace",
        "label": "bytes32",
        "numberOfBytes": "32"
      },
      "t_mapping(t_address,t_bool)": {
        "encoding": "mapping",
        "key": "t_address",
        "label": "mapping(address => bool)",
        "numberOfBytes": "32",
        "value": "t_bool"
      },
      "t_mapping(t_address,t_mapping(t_address,t_bool))": {
        "encoding": "mapping",
        "key": "t_address",
        "label": "mapping(address => mapping(address => bool))",
        "numberOfBytes": "32",
        "value": "t_mapping(t_address,t_bool)"
      },
      "t_mapping(t_address,t_uint256)": {
        "encoding": "mapping",
        "key": "t_address",
        "label": "mapping(address => uint256)",
        "numberOfBytes": "32",
        "value": "t_uint256"
      },
      "t_mapping(t_bytes32,t_address)": {
        "encoding": "mapping",
        "key": "t_bytes32",
        "label": "mapping(bytes32 => address)",
        "numberOfBytes": "32",
        "value": "t_address"
      },
      "t_mapping(t_bytes32,t_uint256)": {
        "encoding": "mapping",
        "key": "t_bytes32",
        "label": "mapping(bytes32 => uint256)",
        "numberOfBytes": "32",
        "value": "t_uint256"
      },
      "t_mapping(t_uint256,t_address)": {
        "encoding": "mapping",
        "key": "t_uint256",
        "label": "mapping(uint256 => address)",
        "numberOfBytes": "32",
        "value": "t_address"
      },
      "t_mapping(t_uint256,t_string_storage)": {
        "encoding": "mapping",
        "key": "t_uint256",
        "label": "mapping(uint256 => string)",
        "numberOfBytes": "32",
        "value": "t_string_storage"
      },
      "t_mapping(t_uint256,t_uint256)": {
        "encoding": "mapping",
        "key": "t_uint256",
        "label": "mapping(uint256 => uint256)",
        "numberOfBytes": "32",
        "value": "t_uint256"
      },
      "t_string_storage": {
        "encoding": "bytes",
        "label": "string",
        "numberOfBytes": "32"
      },
      "t_uint256": {
        "encoding": "inplace",
        "label": "uint256",
        "numberOfBytes": "32"
      }
    }
  }
}